{
  "contractName": "Marketplace",
  "abi": [
    {
      "constant": true,
      "inputs": [
        {
          "name": "",
          "type": "uint256"
        }
      ],
      "name": "products",
      "outputs": [
        {
          "name": "id",
          "type": "uint256"
        },
        {
          "name": "price",
          "type": "uint256"
        },
        {
          "name": "owner",
          "type": "address"
        },
        {
          "name": "name",
          "type": "string"
        },
        {
          "name": "description",
          "type": "string"
        },
        {
          "name": "isBought",
          "type": "bool"
        }
      ],
      "payable": false,
      "stateMutability": "view",
      "type": "function"
    },
    {
      "constant": true,
      "inputs": [],
      "name": "productCount",
      "outputs": [
        {
          "name": "",
          "type": "uint256"
        }
      ],
      "payable": false,
      "stateMutability": "view",
      "type": "function"
    },
    {
      "inputs": [],
      "payable": false,
      "stateMutability": "nonpayable",
      "type": "constructor"
    },
    {
      "anonymous": false,
      "inputs": [
        {
          "indexed": false,
          "name": "id",
          "type": "uint256"
        },
        {
          "indexed": false,
          "name": "price",
          "type": "uint256"
        },
        {
          "indexed": false,
          "name": "owner",
          "type": "address"
        },
        {
          "indexed": false,
          "name": "name",
          "type": "string"
        },
        {
          "indexed": false,
          "name": "description",
          "type": "string"
        },
        {
          "indexed": false,
          "name": "isBought",
          "type": "bool"
        }
      ],
      "name": "ProductAdd",
      "type": "event"
    },
    {
      "anonymous": false,
      "inputs": [
        {
          "indexed": false,
          "name": "id",
          "type": "uint256"
        },
        {
          "indexed": false,
          "name": "owner",
          "type": "address"
        },
        {
          "indexed": false,
          "name": "isBought",
          "type": "bool"
        }
      ],
      "name": "BuyProduct",
      "type": "event"
    },
    {
      "constant": false,
      "inputs": [
        {
          "name": "_price",
          "type": "uint256"
        },
        {
          "name": "_name",
          "type": "string"
        },
        {
          "name": "_description",
          "type": "string"
        }
      ],
      "name": "productAdd",
      "outputs": [],
      "payable": false,
      "stateMutability": "nonpayable",
      "type": "function"
    },
    {
      "constant": false,
      "inputs": [
        {
          "name": "_id",
          "type": "uint256"
        }
      ],
      "name": "buyProduct",
      "outputs": [],
      "payable": true,
      "stateMutability": "payable",
      "type": "function"
    }
  ],
  "bytecode": "0x608060405234801561001057600080fd5b50610af4806100206000396000f3fe60806040526004361061003f5760003560e01c80634d55c5ec146100445780637acc0b20146101ad5780638642269e14610319578063e0f6ef8714610347575b600080fd5b34801561005057600080fd5b506101ab6004803603606081101561006757600080fd5b81019080803590602001909291908035906020019064010000000081111561008e57600080fd5b8201836020820111156100a057600080fd5b803590602001918460018302840111640100000000831117156100c257600080fd5b91908080601f016020809104026020016040519081016040528093929190818152602001838380828437600081840152601f19601f8201169050808301925050505050505091929192908035906020019064010000000081111561012557600080fd5b82018360208201111561013757600080fd5b8035906020019184600183028401116401000000008311171561015957600080fd5b91908080601f016020809104026020016040519081016040528093929190818152602001838380828437600081840152601f19601f820116905080830192505050505050509192919290505050610372565b005b3480156101b957600080fd5b506101e6600480360360208110156101d057600080fd5b8101908080359060200190929190505050610621565b604051808781526020018681526020018573ffffffffffffffffffffffffffffffffffffffff1673ffffffffffffffffffffffffffffffffffffffff168152602001806020018060200184151515158152602001838103835286818151815260200191508051906020019080838360005b83811015610272578082015181840152602081019050610257565b50505050905090810190601f16801561029f5780820380516001836020036101000a031916815260200191505b50838103825285818151815260200191508051906020019080838360005b838110156102d85780820151818401526020810190506102bd565b50505050905090810190601f1680156103055780820380516001836020036101000a031916815260200191505b509850505050505050505060405180910390f35b6103456004803603602081101561032f57600080fd5b81019080803590602001909291905050506107ba565b005b34801561035357600080fd5b5061035c610a1d565b6040518082815260200191505060405180910390f35b6000831161037f57600080fd5b600082511161038d57600080fd5b600081511161039b57600080fd5b6040518060c0016040528060005481526020018481526020013373ffffffffffffffffffffffffffffffffffffffff168152602001838152602001828152602001600015158152506001600080548152602001908152602001600020600082015181600001556020820151816001015560408201518160020160006101000a81548173ffffffffffffffffffffffffffffffffffffffff021916908373ffffffffffffffffffffffffffffffffffffffff160217905550606082015181600301908051906020019061046e929190610a23565b50608082015181600401908051906020019061048b929190610a23565b5060a08201518160050160006101000a81548160ff02191690831515021790555090505060008081548092919060010191905055507f7707dc06c00d011cb8b500ca204742a0e3015daa4a61a5ecc9b4eba75b8b7784600054843385856000604051808781526020018681526020018573ffffffffffffffffffffffffffffffffffffffff1673ffffffffffffffffffffffffffffffffffffffff168152602001806020018060200184151515158152602001838103835286818151815260200191508051906020019080838360005b8381101561057657808201518184015260208101905061055b565b50505050905090810190601f1680156105a35780820380516001836020036101000a031916815260200191505b50838103825285818151815260200191508051906020019080838360005b838110156105dc5780820151818401526020810190506105c1565b50505050905090810190601f1680156106095780820380516001836020036101000a031916815260200191505b509850505050505050505060405180910390a1505050565b60016020528060005260406000206000915090508060000154908060010154908060020160009054906101000a900473ffffffffffffffffffffffffffffffffffffffff1690806003018054600181600116156101000203166002900480601f0160208091040260200160405190810160405280929190818152602001828054600181600116156101000203166002900480156106ff5780601f106106d4576101008083540402835291602001916106ff565b820191906000526020600020905b8154815290600101906020018083116106e257829003601f168201915b505050505090806004018054600181600116156101000203166002900480601f01602080910402602001604051908101604052809291908181526020018280546001816001161561010002031660029004801561079d5780601f106107725761010080835404028352916020019161079d565b820191906000526020600020905b81548152906001019060200180831161078057829003601f168201915b5050505050908060050160009054906101000a900460ff16905086565b6001600082815260200190815260200160002060050160009054906101000a900460ff16156107e857600080fd5b3373ffffffffffffffffffffffffffffffffffffffff166001600083815260200190815260200160002060020160009054906101000a900473ffffffffffffffffffffffffffffffffffffffff1673ffffffffffffffffffffffffffffffffffffffff16141561085757600080fd5b6000811015801561086a57506000548111155b61087357600080fd5b670de0b6b3a76400006001600083815260200190815260200160002060010154023410156108a057600080fd5b6001600082815260200190815260200160002060020160009054906101000a900473ffffffffffffffffffffffffffffffffffffffff1673ffffffffffffffffffffffffffffffffffffffff166108fc349081150290604051600060405180830381858888f1935050505015801561091c573d6000803e3d6000fd5b50336001600083815260200190815260200160002060020160006101000a81548173ffffffffffffffffffffffffffffffffffffffff021916908373ffffffffffffffffffffffffffffffffffffffff160217905550600180600083815260200190815260200160002060050160006101000a81548160ff0219169083151502179055507faca9ce5c5fb1248d28fa7a1f9317ffa1c46d785da7c4b3cb5b50394d1d910b19600054336001604051808481526020018373ffffffffffffffffffffffffffffffffffffffff1673ffffffffffffffffffffffffffffffffffffffff16815260200182151515158152602001935050505060405180910390a150565b60005481565b828054600181600116156101000203166002900490600052602060002090601f016020900481019282601f10610a6457805160ff1916838001178555610a92565b82800160010185558215610a92579182015b82811115610a91578251825591602001919060010190610a76565b5b509050610a9f9190610aa3565b5090565b610ac591905b80821115610ac1576000816000905550600101610aa9565b5090565b9056fea165627a7a723058206325bf1f6df6d9b02c124e83f3edd53cb8e943370fef3d436f6c4d51e7d26b070029",
  "source": "pragma solidity ^0.5.8;\r\n\r\ncontract Marketplace {\r\n\r\n   uint public productCount;\r\n\r\n   struct Product {\r\n       uint id;\r\n       uint price;\r\n       address payable owner;\r\n       string name;\r\n       string description;\r\n       bool isBought;\r\n   }\r\n\r\n   mapping(uint => Product) public products;\r\n\r\n   event ProductAdd(\r\n       uint id,\r\n       uint price,\r\n       address payable owner,\r\n       string name,\r\n       string description,\r\n       bool isBought\r\n   );\r\n   event BuyProduct(\r\n       uint id,\r\n       address payable owner,\r\n       bool isBought\r\n    );\r\n\r\n   constructor() public {\r\n\r\n   }\r\n\r\n   function productAdd(uint _price, string memory _name, string memory _description) public {\r\n       require(_price>0);\r\n       require(bytes(_name).length>0);\r\n       require(bytes(_description).length>0);\r\n       products[productCount] = Product(productCount, _price, msg.sender, _name, _description, false);\r\n       productCount++;\r\n       emit ProductAdd(productCount, _price, msg.sender, _name, _description, false);\r\n   }\r\n\r\n   function buyProduct(uint _id) public payable {\r\n       require(!products[_id].isBought);\r\n       require(products[_id].owner != msg.sender);\r\n       require(_id>=0 && _id<=productCount);\r\n       require(msg.value>=products[_id].price*1000000000000000000);\r\n       products[_id].owner.transfer(msg.value);\r\n       products[_id].owner = msg.sender;\r\n       products[_id].isBought = true;\r\n       emit BuyProduct(productCount, msg.sender, true);\r\n   }\r\n}\r\n",
  "sourcePath": "E:/Blockchain-marketplace/src/contracts/Marketplace.sol",
  "compiler": {
    "name": "solc",
    "version": "0.5.8+commit.23d335f2.Emscripten.clang"
  },
  "schemaVersion": "3.0.13",
  "updatedAt": "2019-10-02T21:14:17.703Z",
  "devdoc": {
    "methods": {}
  },
  "userdoc": {
    "methods": {}
  }
}